S01E000075736172745F746F5F7370695F666C6173685F706F632E73726563DC
S11300000C9456000C9473000C9473000C947105BA
S11300100C9473000C9473000C9473000C94730090
S11300200C9473000C9473000C9473000C94730080
S11300300C9473000C9473000C9473000C94730070
S11300400C9473000C9473000C9473000C94730060
S11300500C9473000C9473000C9473000C94730050
S11300600C9473000C9473000C9473000C94730040
S11300700C9473000C9473000C9473000C94730030
S11300800C9473000C9473000C9473000C94730020
S11300900C9473000C9473000C9473000C94730010
S11300A00C9473000C9473000C94730011241FBE01
S11300B0CFEFCDBFDFE2DEBF10E2A0E0B0E2E8E3C5
S11300C0FBE002C005900D92A230B107D9F722E2FD
S11300D0A2E0B0E201C01D92A331B207E1F70E9491
S11300E05D050C949A050C94000087E08093A200AF
S11300F0089585E080930106E0E6F6E08AE18183D5
S113010084E08283E0E4F6E098E0918382830895BA
S1130110E0E0F1E094E0908B83E0818B81E3828BDB
S11301202CE6248B90A311A282A38DE684A381E8FC
S113013080830895E0ECF9E0128288E1838390ECF7
S11301409483158291E09093C6091782E0ECF8E05D
S11301509BE4968390EA97831282838383E084836B
S113016015820895E0E0F4E088EE93E082879387B7
S113017081E08083089581E0809343000895109284
S113018043000895E0E5F0E08081826080838091FF
S1130190510081FFFCCF88ED84BF81E08093400053
S11301A00895FB01808381E006C0FB01E80FF11D87
S11301B095E590838F5F8417C0F380E18093660692
S11301C081E0809307208093062050E0E0E0F1E096
S11301D0468B578B608F718F91E3928B80898068F7
S11301E0808B46A357A360A771A792A380A18069BF
S11301F080A3809107208111FCCF0895FB018083A7
S113020081E006C0FB01E80FF11D95E590838F5F47
S11302108417C0F380E18093660681E08093072011
S11302208093062050E0E0E0F1E0468B578B608F2E
S1130230718F91E3928B80898068808B46A357A34A
S113024060A771A792A380A1806980A380910720F1
S11302508111FCCF0895CF92DF92EF92FF92CF935A
S1130260DF93CDB7DEB72597CDBFDEBF1092062052
S113027031E03093072030E13093660632E0398371
S11302806C01EE24FF24CA82C72ED82EE92EFF2447
S1130290CB826C83E0E0F1E064E070E0668B778B06
S11302A0CE010596808F918F80E3828B8089806850
S11302B0808B66A377A3CE01019680A791A781E3E3
S11302C082A380A1806980A3809107208111FCCF43
S11302D081E0809307208093062030E0E0E0F1E0A5
S11302E0268B378BCE010596808F918F80E3828B8E
S11302F080898068808B26A337A340A751A781E318
S113030082A380A1806980A32596CDBFDEBFDF9143
S1130310CF91FF90EF90DF90CF900895CF92DF922E
S1130320EF92FF92CF93DF93CDB7DEB72597CDBF82
S1130330DEBF31E0309307201092062030E1309385
S1130340660633E039836C01EE24FF24CA82C72E8B
S1130350D82EE92EFF24CB826C83E0E0F1E064E048
S113036070E0668B778BCE010596808F918F80E34A
S1130370828B80898068808B66A377A3CE010196E7
S113038080A791A781E382A380A1806980A3809143
S113039007208111FCCF81E0809306208093072001
S11303A030E0E0E0F1E0268B378B408F518F81E322
S11303B0828B80898068808B26A337A380E090E2BB
S11303C080A791A780E382A380A1806980A3809104
S11303D007208111FCCF2596CDBFDEBFDF91CF91E1
S11303E0FF90EF90DF90CF9008950F931F93CF93DA
S11303F0DF93EC01162F042F1092080410920904C5
S11304000E94BB0020E030E020C08091C108882316
S113041024F08091030480FFF8CFE0E0F4E010863C
S11304201186838180FF07C00E94BF0081E0809312
S1130430030480E012C0F901E00FF11DEC0FFD1F71
S11304408091C00880832F5F3F4F812F90E0281751
S11304503907D8F20E94BF0081E0DF91CF911F914C
S11304600F9108950F931F93CF93DF9300D000D083
S1130470CDB7DEB78C0140E064E082E090E20E94F8
S1130480F5018823B1F08091022090910320A0917E
S11304900420B091052089839A83AB83BC8389812E
S11304A09A81AB81BC81F80180839183A283B38359
S11304B081E02496CDBFDEBFDF91CF911F910F91D4
S11304C00895DC01E0ECF8E0808180E6818320E09F
S11304D030E011C0FD01E20FF31FE40FF11D908124
S11304E09093C0089091C10896FFFCCF90E690933A
S11304F0C1082F5F3F4FE62FF0E02E173F0750F360
S1130500089580930A2140E061E08AE091E20E942C
S113051061020895EAE0F1E280834183BB27A72FBB
S1130520962F852F8283CB01AA27BB278383472F4E
S1130530552766277727448340E065E0CF010E9472
S113054061020895CF93DF93CDB7DEB72897CDBF6F
S1130550DEBFCE0101960E943202882331F0CE0123
S113056005960E943202811108C041E050E060E02B
S113057070E080E00E948A0252C081E00E94810201
S113058027C069817A818B819C812FEF48E050E2FA
S11305900E948E0189819A81AB81BC8181509F4FD9
S11305A0AF4FBF4F89839A83AB83BC838D819E8178
S11305B0AF81B8858F5F9109A109B1098D839E83AD
S11305C0AF83B88740E06FEF88E090E20E94610259
S11305D08D819E81AF81B8858F3F9105A105B105BD
S11305E009F078F68D819E81AF81B885892B8A2B9D
S11305F08B2BA9F02D813E814F81588569817A81A9
S11306008B819C8148E050E20E948E016D817E8145
S11306108F81988540E088E090E20E9461022896EC
S1130620CDBFDEBFDF91CF91089546E06AE071E26D
S11306308BE40E94D10081E00E94810244E062E0E8
S11306408AE091E20E946102089544E06AE071E266
S11306508FE90E94D10081E00E94810241E063E0C1
S11306608AE091E20E946102089542E06AE071E248
S113067085E00E94D10081E00E94810241E061E0B6
S11306808AE091E20E9461020895CF9341E06AE01A
S113069071E286E00E94FE0080E014C042E06AE05D
S11306A071E285E00E94D10080910B2181FD10C090
S11306B02FEF89E698E1215080409040E1F700C097
S11306C000008C2FC1E0C80F8A3040F380E001C0E5
S11306D081E0CF9108950E944503811107C042E053
S11306E050E060E070E00E948A02089541E062E117
S11306F071E287EC0E94FE0088EE93E080930A0486
S113070090930B0442E062E171E285E00E94D10023
S11307108091132180FD04C081E00E94810208952C
S11307202FEF89E698E1215080409040E1F700C026
S1130730000082E00E948102E5CF8091082190911F
S113074009218850904269F482E191E28093082162
S11307509093092188E090E28093112290931222D1
S1130760089588E090E2809308219093092182E122
S113077091E280931122909312220895CF92DF92F6
S1130780EF92FF920F931F93CF93DF938C016A0133
S11307907B01D22F0E944503C82F811108C042E07B
S11307A050E060E070E080E00E948A0207C02D2FD4
S11307B0A801C701B6010E942B01C1E08C2FDF9173
S11307C0CF911F910F91FF90EF90DF90CF900895FC
S11307D08F929F92AF92BF92CF92DF92EF92FF924D
S11307E01F93CF93DF93CDB7DEB72897CDBFDEBF7E
S11307F0CE0101960E943202882331F0CE01059683
S11308000E943202811108C041E050E060E070E0D3
S113081080E00E948A0213C189818F7710E8181B37
S1130820CD80DE80EF80F88480E8C816D104E1042E
S1130830F10408F054C040E06C2D88E090E20E947E
S1130840F501811107C041E050E060E070E00E94D2
S11308508A02F5C0812F90E0A0E0B0E04D815E8176
S11308606F817885481759076A077B0708F410E0F9
S11308701123B1F049815A816B817C81212F88E059
S113088090E20E94BE03882309F4D9C08091072016
S11308908111FCCF8FE39FE10197F1F700C00000C5
S11308A02D81211B49815A816B817C81410F511D0E
S11308B0611D711D812F90E0885F9F4D0E94BE03D2
S11308C0882309F4BCC0809107208111FCCF4D819D
S11308D05E816F81788581E00E948A02B0C088E0E1
S11308E090E2809308219093092182E191E2809320
S11308F01122909312221123B1F140E0612F88E07C
S113090090E20E94F501811107C041E050E060E0EF
S113091070E00E948A0293C00E949D0349815A811B
S11309206B817C81212F80911122909112220E944F
S1130930BE03882309F483C0812F90E0A0E0B0E0D7
S1130940C81AD90AEA0AFB0A49815A816B817C8157
S1130950840F951FA61FB71F89839A83AB83BC831B
S11309604601570155C04601570152C091E8C916C6
S1130970D104E104F10410F41C2D01C010E811238A
S113098099F040E0612F80910821909109210E9403
S1130990F501811107C041E050E060E070E00E9481
S11309A08A024DC00E949D03C11AD108E108F108D2
S11309B081E888169104A104B10440F4182D8FE352
S11309C09FE10197F1F700C0000001C010E84981E0
S11309D05A816B817C81212F809111229091122266
S11309E00E94BE03882359F1812F90E0A0E0B0E07B
S11309F0881A990AAA0ABB0A49815A816B817C81A7
S1130A00840F951FA61FB71F89839A83AB83BC836A
S1130A10C114D104E104F10409F0A8CF81149104B4
S1130A20A104B10409F0A2CF809107208111FCCF69
S1130A304D815E816F81788581E00E948A022896CB
S1130A40CDBFDEBFDF91CF911F91FF90EF90DF907C
S1130A50CF90BF90AF909F908F90089503C080E88F
S1130A608093C1088091C1088823CCF78091C00885
S1130A7080930721809107218A36C9F028F48536AE
S1130A8051F0893689F008958337A1F0873731F022
S1130A90823791F406C00E946B0308950E94E80314
S1130AA008950E94A20208950E94150308950E94C9
S1130AB0250308950E94350308950E9475000E943D
S1130AC07900F8940E94C2000E949A000E94880053
S1130AD00E94B200789480E1809365060E942E05FE
S1130AE0FDCF1F920F920FB60F9211248F93EF93A5
S1130AF0FF938091110184FD04C08091210184FF42
S1130B00F8CFE0E0F1E081898F71818B81A18F7151
S1130B1081A31092072080910620882319F080E198
S1130B2080936506FF91EF918F910F900FBE0F9008
S10B0B301F901895F894FFCF03
S1050B38550062
S9030000FC
