:1000000055C0000070C000006EC000000C94620E6D
:100010006AC000000C94FE0D66C000000C94A50E92
:1000200062C0000060C000005EC000005CC0000054
:100030005AC0000058C0000056C0000054C0000064
:1000400052C0000050C000000C948B0E4CC0000049
:100050004AC0000048C0000046C0000044C0000084
:1000600042C0000040C000003EC000003CC0000094
:100070003AC0000038C0000036C0000034C00000A4
:1000800032C0000030C000002EC000002CC00000B4
:100090002AC0000028C0000026C0000024C00000C4
:1000A00022C0000020C000001EC0000011241FBE9E
:1000B000CFEFCDBFDFE2DEBF10E2A0E0B0E2ECE6C2
:1000C000FEE102C005900D92A430B107D9F724E2F9
:1000D000A4E0B0E201C01D92A83EB207E1F70E9481
:1000E000970D0C94340F8CCF809302066093020618
:1000F00080930506609306066093010608953F937A
:1001000060930206809301068093020660930106C5
:100110003F9180910806842308958093060680937A
:1001200001060895A1E0B0E0E8E9F0E00C94FA0ED1
:10013000FFB690E8F922198290910420913019F0CD
:1001400091E09093042090E02BE4A22E20E2B22EC6
:10015000A80EB91EF501D080895B9F4DFC01C080BF
:10016000F894DD2009F4A6C0F5018081D6DF8D2D3D
:100170006C2DBADFED2C80E000E010E0812C90E2E5
:10018000992E15FF07C090914C2020914B20922B67
:1001900009F532C08FB78F298FBF0000F8948D2DDD
:1001A0006C2D4E2DACDF0F5F1F4F909100209F5F95
:1001B00090930020923030F0923021F0933011F083
:1001C000109200208823E9F290914C2020914B203E
:1001D000922B14C020E0E0FE09C0E22FF0E0EE0F09
:1001E000FF1FE35FFF4D8082918201C090FD2F5F72
:1001F0009695E694992379F790E0EE242FB72F296E
:100200002FBF109205209923D1F1EE20C1F120914A
:10021000482030914720232B582F30E070E060E0D9
:1002200040E021C050FF18C012C020FF0FC0461789
:1002300061F4E32FF0E0EE0FFF1FE35FFF4D00835B
:100240001183E52FEE7F31F008C06F5F26952223E2
:1002500061F703C071E001C090FD4F5F90FD3F5F0B
:100260005695969511F05523E9F630930520809523
:10027000E82280E07130D1F4EE20B1F017C0909107
:100280004C2020914B20922B99839091052006C001
:10029000298120FD9F5F2981269529832981222399
:1002A000B9F79093052002C000E010E0F894EE202A
:1002B00009F067CFF501808130DF109206208FB7FB
:1002C0008F298FBF2196ECE00C94130FFF920F93B0
:1002D0001F93CF93DF938C01EB01FF2403C08F2D7D
:1002E00049D1F39480912A20F816C8F31092252062
:1002F000109226200093072010930820CE0106D4E8
:10030000CDB7DEB7E5E00C941A0FFC0180E290E077
:10031000808391831282138280E095E084839583A9
:100320000895CF93C0E003C08C2F24D1CF5F80917C
:100330002A20C817C8F3CF91089510922A2084E08C
:1003400080931F2084E18093222095E090932320C6
:100350001092212080932020EFE1F0E281E082934F
:1003600083E08683D8D310920B2010920C2008953E
:100370001F93CF93DF931092092010920A2040918F
:10038000252050912620809325209093262020918F
:10039000272030912820241B350B280F391FC0E05F
:1003A00003C0285C3040CF5F283C3105D0F7209354
:1003B00027203093282080912920882341F08C1712
:1003C00018F41092292003C08C1B80932920B4D3E9
:1003D000E0910B20F0910C20309709F0099510E086
:1003E000D0E005C08D2F6C2FD9D0182BDF5F509136
:1003F0002A20D517B8F3112349F080910920909154
:100400000A2091608093092090930A2010921D2069
:10041000ABE2B0E240E081E090E018C02C9128719E
:1004200099F0E42FE695E695E695F0E0E35FFF4D61
:10043000242F2770BC0102C0660F771F2A95E2F7B0
:100440009B013089322B308B4F5F1696451731F761
:100450008091092090910A20DF91CF911F910895FA
:1004600090912A20A92FB0E0FD01EE0FFF1FEA0FA7
:10047000FB1FEE0FFF1FE55DFF4D43836770858314
:100480002370660F660F660F262B24839F5F909361
:100490002A2008951F93CF93DF93C82FD0E0FE0149
:1004A000EE0FFF1FEC0FFD1FEE0FFF1FE55DFF4D71
:1004B0009581238130E000901E2002C0359527955C
:1004C0000A94E2F7122F243008F414E020912A2035
:1004D000821760F5892F04D3412F50E016951695A9
:1004E000212F30E0241B350B2817390764F4FE0157
:1004F000EE0FFF1FEC0FFD1FEE0FFF1FE55DFF4D21
:1005000024812B7F2483509541955F4F48175907CD
:100510007CF0FE01EE0FFF1FEC0FFD1FEE0FFF1F23
:10052000E55DFF4D24812460248302C080E090E0DB
:10053000DF91CF911F91089590E0FC01EE0FFF1F16
:10054000E80FF91FEE0FFF1FE55DFF4D258182E0EB
:1005500080838091092090910A20826080930920F5
:1005600090930A201282E22FF0E0ED5BFF4D80E8CD
:1005700080830895CF93C82FDFDF8C2F90E0FC019C
:10058000EE0FFF1FE80FF91FEE0FFF1FE55DFF4D98
:1005900081E080838FE08183CF9108952F923F92F5
:1005A0004F925F926F927F928F929F92BF92CF9263
:1005B000DF92EF92FF920F931F93CF93DF930F92EF
:1005C000CDB7DEB7082F162F65DF4C01C02EDD2416
:1005D000B601660F771FFB01EC0DFD1DEE0FFF1F2F
:1005E000E55DFF4D2481438150E0822F837090E0D0
:1005F0000196FA0102C0F595E7958A95E2F7CF01D9
:10060000E23008F482E0DA01A81BB109FB01EC0D2D
:10061000FD1DEE0FFF1FE55DFF4D8081843009F465
:10062000E3C0853030F4813071F0823009F044C28B
:1006300060C0803109F477C1803209F415C2883076
:1006400009F03AC2D8C14091092050910A20CA014C
:1006500092608093092090930A208581618190E0C7
:100660006A3080F0FC01EE0FFF1FEB5EFF4DDC01F6
:10067000AA0FBB1FA35FBF4D8D919C9111978083E3
:1006800091831DC0DC01AA0FBB1FAB5EBF4D2D9136
:100690003C911197FC01EE0FFF1FE35FFF4D80813E
:1006A00091818217930718F42150304005C0281714
:1006B000390758F42F5F3F4F2D933C9311974860B3
:1006C00052604093092050930A206150F601EE0FCA
:1006D000FF1FEC0DFD1DEE0FFF1FE55DFF4D61835C
:1006E000662311F4802F28DF809120208093292019
:1006F000DBC122FF08C0A581B0E0AD5BBF4D1C92FD
:1007000080E28083C8C1C40197FE02C080E090E00F
:100710008417950768F0F601EE0FFF1FEC0DFD1D25
:10072000EE0FFF1FE55DFF4D84E080831282BEC1A6
:10073000112309F4C1C180912920882309F0BCC18B
:10074000F601EE0FFF1FEC0DFD1DEE0FFF1FE55D27
:10075000FF4D258130E0D901AA0FBB1FAB5EBF4D15
:100760008D919C911197F901EE0FFF1FE35FFF4DF3
:1007700040815181F901ED5BFF4D8417950768F4C5
:100780002081210F2083309123203058231708F433
:1007900093C120E82083019610C048175907D0F470
:1007A0002081211B208330E840912220532F541BAD
:1007B000521708F481C1308301978D939C93119750
:1007C0008091092090910A2088608093092090935D
:1007D0000A2072C18081813810F08150808380812D
:1007E00087FD6AC18F5F4CC1C40197FE02C080E0E3
:1007F00090E08417950708F445C1809120208093EC
:100800002920F601EE0FFF1FEC0DFD1DEE0FFF1F5F
:10081000E55DFF4D82818F5F8283848190E08873E4
:100820009070A3E096958795AA95E1F7B82E882356
:10083000D1F54DC01017A9F1812F90E01C01220CB9
:10084000331C280E391E220C331C6BE270E2260E7C
:10085000371EF101848190E08873907053E0969583
:1008600087955A95E1F7B816E1F4812F298312DEB6
:10087000F1013381AC01431B5109F2018081B401C4
:10088000681B710929816417750714F4F30107C007
:10089000F1018081803111F0883019F4F701108264
:1008A00021E01F5F0DC020E010E083E0482E512CB6
:1008B0004E0E5F1E7F0162E070E0E60EF71E37010C
:1008C00080912A20181708F4B5CF222379F480915B
:1008D0001F20882359F08091092090910A20986068
:1008E0008093092090930A2081E001C080E0F60106
:1008F000EE0FFF1FEC0DFD1DEE0FFF1FE55DFF4D21
:10090000228190911F20291708F4D7C02091092037
:1009100030910A2023602093092030930A2090E12F
:1009200090831182CAC04091092050910A2022FF71
:100930000EC0A581B0E0AD5BBF4D80E88C9380E236
:10094000808350614093092050930A204CC0C40119
:1009500097FE02C080E090E09601220F331F8A17B5
:100960009B0778F42C0D3D1D220F331F255D3F4D55
:1009700088E0F90180838091092090910A20946099
:100980002EC0CA0181608093092090930A20F9014A
:10099000EC0DFD1DEE0FFF1FE55DFF4D8281909177
:1009A0001F20891710F48F5F828390912120992353
:1009B000E1F0F601EE0FFF1FEC0DFD1DEE0FFF1F26
:1009C000E55DFF4D8181891718F4810F81830DC08A
:1009D000802FD0DD8091092090910A209260809331
:1009E000092090930A2081E001C080E090912020AE
:1009F0009093292062C080912020809329208281B9
:100A0000882309F43FC0C40197FE02C080E090E053
:100A10002091092030910A20A817B90790F4F60117
:100A2000EE0FFF1FEC0DFD1DEE0FFF1FE55DFF4DEF
:100A300080E1808321602093092030930A2080E0A8
:100A400006C034602093092030930A2081E0F6012B
:100A5000EE0FFF1FEC0DFD1DEE0FFF1FE55DFF4DBF
:100A600092819150928329C0A581B0E0AD5BBF4DCA
:100A70008C918F5F8C9322FD08C087FF03C080E1BB
:100A800080831AC0802F58DD17C0909124208917C9
:100A900068F0802F6FDD8091092090910A2090618D
:100AA0008093092090930A2081E007C0809109205B
:100AB00090910A209460F4CF80E00F90DF91CF9165
:100AC0001F910F91FF90EF90DF90CF90BF909F907C
:100AD0008F907F906F905F904F903F902F900895F0
:100AE00090E0FC0134962DE030E2EE0FFF1FE20FA4
:100AF000F31FDC01AA0FBB1FA20FB31F80819181DE
:100B00002D913C911197821B930B0895009711F042
:100B1000FC010995089510924B2010924C201092E0
:100B200047201092482010924D2010924E20109293
:100B3000492010924A20089580914D2090914B2099
:100B4000892B41F0E0910720F0910820309711F0B7
:100B500080E0099580914E2090914C20892B41F0A6
:100B6000E0910720F0910820309711F081E009957D
:100B70000895E0E6F6E080E8818380E1868B80E4FA
:100B800082830895E0E5F0E0808182608083E1E582
:100B9000F0E0808181FFFDCF88ED84BF81E080930C
:100BA0004000089585E080930106E0E6F6E08AE9DA
:100BB000818384E48283E0E4F6E0108A81E0818B23
:100BC00083E0838B8BE081830895E0ECF9E012826F
:100BD00088E1838380EC8483158281E08093C60959
:100BE0001782E0ECF8E083E186831782128282ECC0
:100BF0008483158288E083830895E0E0F1E094E047
:100C0000908B83E0818B81E3828B2CE6248B90A3F5
:100C100011A290E392A39DE694A382AB86E184ABFC
:100C200085E080AB82E181AB1092410181E080934D
:100C300042011092430180EC98E080934C01909324
:100C40004D018DE48093440181E880830895E0E6BE
:100C5000F4E081E1848383E085838EE9868386E105
:100C600086878DE0848784E4808380E5818380E4C7
:100C7000828380EA83830895E0E4F8E0108281E0D3
:100C8000809346088DE790E086A397A3089580910E
:100C9000022090910320E0E0F4E08287938781E0D6
:100CA00080838283809343000895E0E8F1E080EC44
:100CB000818383E68083108681E686831686089585
:100CC000E0E0F3E082E2818388E0828381E0838355
:100CD00089E080830895EEE1F0E284E0818384E19D
:100CE000848395E095831382828381E0808383E00F
:100CF0008683089523E04AE060E080E0B1DB23E0F2
:100D00004AE060E081E0ACDB23E04AE060E082E0C2
:100D1000A7CB0895E0E0F4E088EE93E08287938724
:100D200081E08083089585E080930106E0E6F6E0A7
:100D30008AE9818384E48283E0E4F6E088E08183C9
:100D400084E082830895E0E0F1E094E0908B83E01A
:100D5000818B81E3828B2CE6248B90A311A282A34A
:100D60008DE684A381E880830895E0ECF9E01282A7
:100D700088E1838390EC9483158291E09093C60977
:100D80001782E0ECF8E09BE4968390EA9783128266
:100D9000838383E084831582089504DF87E0809352
:100DA000A200EBE4F0E281E58083118212821382DB
:100DB000E7E4F0E282EA8083118212821382F894DF
:100DC000E1DE03DF1ADF71DF81E0809300085FDF7F
:100DD00077DF52DF3CDF8EDF60E070E082E990E099
:100DE00075DA79DF789480E180936506089587E06D
:100DF0008093A20098DFF894C5DEB7DFA4DF8ADF16
:100E0000789480E1809365060895CF92DF92EF9207
:100E1000FF92CF93DF9300D000D0CDB7DEB731E0A3
:100E2000309354201092532030E13093660633E023
:100E300039836C01EE24FF24CA82C72ED82EE92EF6
:100E4000FF24CB826C83E0E0F1E064E070E0668B2D
:100E5000778B408F518F80898068808B66A377A3C2
:100E6000CE01019680A791A781E382A380A180692A
:100E700080A3809154208111FCCF81E08093542085
:100E80008093532030E0E0E0F1E0268B378B408FF9
:100E9000518F80898068808B26A337A381E090E200
:100EA00080A791A780E382A380A1806980A3249674
:100EB000CDBFDEBFDF91CF91FF90EF90DF90CF905D
:100EC000089589E693E280934801909349018091C7
:100ED000F7219091F8219C01220F331F820F931F5D
:100EE000809346019093470184E8809340010895E0
:100EF00022E04FE550E260E070E0CB0186DF8091B8
:100F000054208111FCCF0895880F991F880F991FD5
:100F1000880F991FBC016E5F7F4F80E090E028E052
:100F200044E650E272DF809154208111FCCF089595
:100F30006091642070916520809166209091672077
:100F400029E04CE650E261DF809154208111FCCF12
:100F5000E4E6F0E280819181A281B3810996A11D2E
:100F6000B11D80839183A283B3838091712090917E
:100F70007220A0917320B0917420880F991FAA1F2E
:100F8000BB1F8093572090935820A0935920B09373
:100F90005A200895609168207091692080916A209C
:100FA00090916B2024E045EF51E22FDF8091542097
:100FB0008111FCCFE4E6F0E284819581A681B781BE
:100FC0000496A11DB11D84839583A683B7830895DC
:100FD000CF93C091F7218C2F880FC80FCE5F10924E
:100FE0005D2010925E201092400860916820709100
:100FF000692080916A2090916B202C2F47E653E264
:1010000004DF809154208111FCCFE4E6F0E284817A
:101010009581A681B7818C0F911DA11DB11D84837F
:101020009583A683B783E5EFF1E2808191810197F3
:101030008083918386E08093400843DFCF910895B9
:10104000ECE6F0E2A4812081318142815381B0E05D
:10105000C1D69B01AC0160E078E488EE91E098D6BF
:1010600020935520309356200895CF93DF93E0913D
:10107000FA21F091FB2180E88083E091FA21F09140
:10108000FB21808140915720509158206091592038
:1010900070915A2090E0A0E0B0E0481759076A0725
:1010A0007B0718F4809171208083E091FA21F09100
:1010B000FB21808140915720509158206091592008
:1010C00070915A2090E0A0E0B0E0481759076A07F5
:1010D0007B0748F410925720109258201092592004
:1010E00010925A2015C0208180915720909158204D
:1010F000A0915920B0915A20821B9109A109B109F0
:101100008093572090935820A0935920B0935A2051
:101110002191AF01C4E6D0E2688179818A819B8107
:1011200074DEE091FA21F091FB2120818881998180
:10113000AA81BB81820F911DA11DB11D8883998356
:10114000AA83BB83DF91CF9108958091FA2190917A
:10115000FB218556944269F484E791E28093FA2159
:101160009093FB2185E694E28093E6249093E72414
:10117000089585E694E28093FA219093FB2184E719
:1011800091E28093E6249093E7240895DEDF6DDFFB
:10119000A091E624B091E7248D9190E0E0E0F1E0A9
:1011A00086AB97ABA0AFB1AF80A9806980AB8091CF
:1011B00055209091562080932608909327080895F3
:1011C0009C01909154209111FCCF1092260810920E
:1011D000270810924008C90197DEAADE31DF80910E
:1011E000682090916920A0916A20B0916B20892B92
:1011F0008A2B8B2B09F0CEDE85E694E28093FA21D0
:101200009093FB2132DF809154208111FCCF80919B
:10121000682090916920A0916A20B0916B20892B61
:101220008A2B8B2B09F0D4DEB1CF089584E590E0B2
:101230008093F7219093F821E9E6F3E285E694E2C2
:101240001192E817F907E1F73CCE0895FB0180837E
:10125000423060F031968EEF840F90E00296860F58
:10126000971F25E52193E817F907E1F780E18093BF
:10127000660681E0809354208093532050E0E0E0A4
:10128000F1E0468B578B608F718F91E3928B808951
:101290008068808B46A357A360A771A792A380A103
:1012A000806980A3809154208111FCCF0895FB01B7
:1012B0008083423060F031968EEF840F90E002968A
:1012C000860F971F25E52193E817F907E1F780E1DD
:1012D0008093660681E0809354208093532050E0F1
:1012E000E0E0F1E0468B578B608F718F91E3928B3A
:1012F00080898068808B46A357A360A771A792A3BB
:1013000080A1806980A3809154208111FCCF089531
:10131000CF92DF92EF92FF92CF93DF93CDB7DEB7FC
:101320002597CDBFDEBF1092532031E0309354207B
:1013300030E13093660632E039836C01EE24FF24FD
:10134000CA82C72ED82EE92EFF24CB826C83E0E020
:10135000F1E064E070E0668B778BCE010596808FBC
:10136000918F80E3828B80898068808B66A377A3CE
:10137000CE01019680A791A781E382A380A1806915
:1013800080A3809154208111FCCF81E08093542070
:101390008093532030E0E0E0F1E0268B378BCE01E4
:1013A0000596808F918F80E3828B80898068808B07
:1013B00026A337A340A751A781E382A380A1806918
:1013C00080A32596CDBFDEBFDF91CF91FF90EF9038
:1013D000DF90CF900895CF92DF92EF92FF92CF935C
:1013E000DF93CDB7DEB72597CDBFDEBF31E03093B9
:1013F00054201092532030E13093660633E0398355
:101400006C01EE24FF24CA82C72ED82EE92EFF24B9
:10141000CB826C83E0E0F1E064E070E0668B778B78
:10142000CE010596808F918F80E3828B80898068C2
:10143000808B66A377A3CE01019680A791A781E355
:1014400082A380A1806980A3809154208111FCCF68
:1014500081E0809353208093542030E0E0E0F1E07D
:10146000268B378B408F518F81E3828B80898068F8
:10147000808B26A337A381E090E280A791A780E329
:1014800082A380A1806980A3809154208111FCCF28
:101490002596CDBFDEBFDF91CF91FF90EF90DF901B
:1014A000CF90089570E061157105A1F0242F30E010
:1014B000DC01A20FB31F620F731F9C01260F371FA1
:1014C000E0ECF8E091819923ECF790819D93A217CD
:1014D000B307C1F781E008950F931F93CF93DF9374
:1014E00000D000D0CDB7DEB78C0140E064E08FE4DF
:1014F00090E2D8DF8823B1F080914F209091502066
:10150000A0915120B091522089839A83AB83BC83F0
:1015100089819A81AB81BC81F80180839183A28308
:10152000B38381E02496CDBFDEBFDF91CF911F91C1
:101530000F910895E0ECF8E0208120E6218370E02F
:1015400061157105A1F0242F30E0DC01A20FB31F5B
:10155000620F731F9C01260F371F80E69D919083B9
:10156000918196FFFDCF8183A217B307B9F7089544
:101570008093FC2140E061E08CEF91E2DBCF0895A5
:10158000ECEFF1E280834183BB27A72F962F852FB5
:101590008283CB01AA27BB278383472F5527662742
:1015A0007727448340E065E0CF01C4CF0895CF930F
:1015B000DF93CDB7DEB72897CDBFDEBFCE01019652
:1015C0008BDF882329F0CE01059686DF811107C0C5
:1015D00041E050E060E070E080E0D2DF56C081E0A2
:1015E000C7DF8D819E81AF81B8858F3F9105A105B1
:1015F000B10581F178F169817A818B819C812FEF2E
:1016000045E750E2E8DE89819A81AB81BC81815057
:101610009F4FAF4FBF4F89839A83AB83BC838D812C
:101620009E81AF81B8858F5F9109A109B1098D8332
:101630009E83AF83B88740E06FEF85E790E27ADF63
:101640008D819E81AF81B8858F3F9105A105B10540
:1016500009F088F68D819E81AF81B885892B8A2B10
:101660008B2B99F02D813E814F81588569817A813C
:101670008B819C8145E750E2AEDE6D817E818F815A
:10168000988540E085E790E255DF2896CDBFDEBF24
:10169000DF91CF91089546E06CEF71E28BE4D6DDE7
:1016A00081E066DF44E062E08CEF91E243CF089591
:1016B00044E06CEF71E28FE9C9DD81E059DF41E080
:1016C00063E08CEF91E236CF089542E06CEF71E277
:1016D00085E0BCDD81E04CDF41E061E08CEF91E230
:1016E00029CF0895CF9341E06CEF71E286E0DFDD12
:1016F000CAE042E06CEF71E285E0A8DD8091FD2157
:1017000081FD0CC02FEF89E698E121508040904088
:10171000E1F700C00000C15061F701C0C1E08C2FAB
:10172000CF910895DFDF811106C042E050E060E014
:1017300070E026CF089541E068E672E287ECB7DDFD
:1017400088EE93E080930A0490930B0442E068E6ED
:1017500072E285E07BDD8091692280FD03C081E03B
:1017600007CF08952FEF89E698E1215080409040FF
:10177000E1F700C0000082E0FBDEE8CF8091FA21B3
:101780009091FB218557904269F488E692E280931C
:10179000FA219093FB2185E790E28093E6249093D1
:1017A000E724089585E790E28093FA219093FB2146
:1017B00088E692E28093E6249093E7240895CF92FE
:1017C000DF92EF92FF920F931F93CF93DF938C01E1
:1017D0006A017B01D22F86DFC82F811107C042E04A
:1017E00050E060E070E080E0CBDE06C02D2FA80165
:1017F000C701B6018DDDC1E08C2FDF91CF911F9124
:101800000F91FF90EF90DF90CF9008958F929F926D
:10181000AF92BF92CF92DF92EF92FF920F931F93FE
:10182000CF93DF93CDB7DEB72897CDBFDEBFCE0114
:10183000019652DE882329F0CE0105964DDE8111F6
:1018400007C041E050E060E070E080E099DE24C134
:1018500019811F7709F40DC180E8811B182FCD80F5
:10186000DE80EF80F88480E8C816D104E104F1043A
:1018700008F051C040E06C2D85E790E213DE811145
:1018800007C041E050E060E070E080E079DE04C134
:10189000812F90E0A0E0B0E04D815E816F8178857E
:1018A000481759076A077B07C0F01123B9F049812F
:1018B0005A816B817C81212F85E790E280DF88232C
:1018C00009F4EAC0809154208111FCCF8FE39FE19D
:1018D0000197F1F700C0000001C010E02D81211B2D
:1018E00049815A816B817C81410F511D611D711DA0
:1018F000812F90E08B589F4D62DF882309F4CCC084
:10190000809154208111FCCF4D815E816F8178855B
:1019100081E036DEC1C085E790E28093FA219093A2
:10192000FB2188E692E28093E6249093E72411233A
:1019300079F140E0612F85E790E2B4DD811106C0C6
:1019400041E050E060E070E01BDEA6C017DF498197
:101950005A816B817C81212F8091E6249091E7242C
:101960002EDF882309F498C0812F90E0A0E0B0E03A
:10197000C81AD90AEA0AFB0A49815A816B817C811B
:10198000840F951FA61FB71F89839A83AB83BC83DF
:101990004601570110E849C091E8C916D104E10495
:1019A000F10420F40C2DCC2061F001C0012F40E0A7
:1019B000602F8091FA219091FB2174DDDFDE01C060
:1019C00000E0C01AD108E108F10881E88816910406
:1019D000A104B10440F4082D8FE39FE10197F1F7D2
:1019E00000C0000001C0012F49815A816B817C81B8
:1019F000202F8091E6249091E724E1DE882309F4EA
:101A00004BC0802F90E0A0E0B0E0881A990AAA0AA3
:101A1000BB0A49815A816B817C81840F951FA61F67
:101A2000B71F89839A83AB83BC83C114D104E104BB
:101A3000F10409F0B1CF81149104A104B10409F0BB
:101A4000BFCF809154208111FCCF4D815E816F8189
:101A5000788581E095DD20C085E790E28093FA21CA
:101A60009093FB2188E692E28093E6249093E7240A
:101A70008FCFCD80DE80EF80F88490E8C916D10446
:101A8000E104F10448F740E06C2D85E790E20ADDBF
:101A9000882309F4F6CE22CF2896CDBFDEBFDF9192
:101AA000CF911F910F91FF90EF90DF90CF90BF905B
:101AB000AF909F908F9008958091C10888233CF04B
:101AC000E0ECF8E090E8918381818823E4F780914D
:101AD000C0088093F9218091F9218A36A9F028F471
:101AE000853651F0893671F00895833779F087375C
:101AF00029F0823761F404C015CE089587CE089589
:101B000056CD0895C8CD0895D3CD0895DECD08955E
:101B100090916806892F807496FF05C080E88093B5
:101B2000650681E0089590E890936606089521D8AF
:101B3000EFDF882319F05BD9BFDFFECF2ED9D8D9CC
:101B40000DE010E2809163208823E1F3109263207E
:101B500080916120909162200E94B801EC0181FF88
:101B60004AC0F8018089813031F480915B209091E6
:101B70005C2026DB40C08230F1F480915B209091A4
:101B80005C20019680935B2090935C2020915B20E9
:101B900030915C2080915F20909160202817390758
:101BA00021F410925B2010925C2080915B20909138
:101BB0005C2006DB20C08430F1F480915B209091A2
:101BC0005C20892B51F080915B2090915C200197E3
:101BD00080935B2090935C2009C080915F2090915E
:101BE0006020019780935B2090935C2080915B2024
:101BF00090915C20E5DAD0FDABCFA4CF1F920F927D
:101C00000FB60F9211242F933F934F935F936F93CF
:101C10007F938F939F93AF93BF93EF93FF93E0E0F6
:101C2000F1E081A984FFFDCF809157209091582049
:101C3000A0915920B0915A20892B8A2B8B2B29F106
:101C4000E0E0F1E081A98F7181AB809168209091F3
:101C50006920A0916A20B0916B20892B8A2B8B2B55
:101C600091F080915D2090915E20209167233091CA
:101C700068232817390738F48091F5219091F621CF
:101C8000892B09F0A5D982DA0CC0E0E0F1E081A946
:101C9000806181AB109226081092270810924008AC
:101CA000C5DAFF91EF91BF91AF919F918F917F9195
:101CB0006F915F914F913F912F910F900FBE0F90B9
:101CC0001F9018951F920F920FB60F9211248F93A9
:101CD000EF93FF93E0E0F1E0818984FD03C081A1EF
:101CE00084FFFACFE0E0F1E081898F71818B81A1DF
:101CF0008F7181A380915320882319F080E1809314
:101D0000650610925420FF91EF918F910F900FBEB6
:101D10000F901F9018951F920F920FB60F921124DB
:101D20008F939F9381E080934C0880915D209091E8
:101D30005E20019680935D2090935E209F918F910D
:101D40000F900FBE0F901F9018951F920F920FB615
:101D50000F9211242F933F938F939F9381E0809351
:101D60006320209161203091622080910220909127
:101D70000320820F931F80936120909362209F9194
:101D80008F913F912F910F900FBE0F901F9018953C
:101D9000A1E21A2EAA1BBB1BFD010DC0AA1FBB1F6F
:101DA000EE1FFF1FA217B307E407F50720F0A21BE1
:101DB000B30BE40BF50B661F771F881F991F1A944E
:101DC00069F760957095809590959B01AC01BD0178
:101DD000CF0108953AD0A59F900DB49F900DA49F78
:101DE000800D911D112408952F923F924F925F9282
:101DF0006F927F928F929F92AF92BF92CF92DF921B
:101E0000EF92FF920F931F93CF93DF93CDB7DEB77F
:101E1000CA1BDB0BCDBFDEBF09942A8839884888EE
:101E20005F846E847D848C849B84AA84B984C884F6
:101E3000DF80EE80FD800C811B81AA81B981CE0FED
:101E4000D11DCDBFDEBFED010895A29FB001B39FAC
:101E5000C001A39F700D811D1124911DB29F700DB3
:0C1E6000811D1124911D0895F894FFCFFE
:041E6C000155190003
:00000001FF
