:1000000055C0000070C000006EC000000C949C0938
:100010006AC000000C94380966C000000C94DF0927
:1000200062C0000060C000005EC000005CC0000054
:100030005AC0000058C0000056C0000054C0000064
:1000400052C0000050C000000C94C5094CC0000014
:100050004AC0000048C0000046C0000044C0000084
:1000600042C0000040C000003EC000003CC0000094
:100070003AC0000038C0000036C0000034C00000A4
:1000800032C0000030C000002EC000002CC00000B4
:100090002AC0000028C0000026C0000024C00000C4
:1000A00022C0000020C000001EC0000011241FBE9E
:1000B000CFEFCDBFDFE2DEBF10E2A0E0B0E2E0EEC6
:1000C000F4E102C005900D92A430B107D9F722E205
:1000D000A4E0B0E201C01D92AD3DB207E1F70E947D
:1000E000A9080C946E0A8CCF8093020660930206D6
:1000F00080930506609306066093010608953F937A
:1001000060930206809301068093020660930106C5
:100110003F9180910806842308958093060680937A
:1001200001060895A1E0B0E0E8E9F0E00C94340A9B
:10013000FFB690E8F922198290910420913019F0CD
:1001400091E09093042090E02BE4A22E20E2B22EC6
:10015000A80EB91EF501D080895B9F4DFC01C080BF
:10016000F894DD2009F4A6C0F5018081D6DF8D2D3D
:100170006C2DBADFED2C80E000E010E0812C90E2E5
:10018000992E15FF07C090914C2020914B20922B67
:1001900009F532C08FB78F298FBF0000F8948D2DDD
:1001A0006C2D4E2DACDF0F5F1F4F909100209F5F95
:1001B00090930020923030F0923021F0933011F083
:1001C000109200208823E9F290914C2020914B203E
:1001D000922B14C020E0E0FE09C0E22FF0E0EE0F09
:1001E000FF1FE35FFF4D8082918201C090FD2F5F72
:1001F0009695E694992379F790E0EE242FB72F296E
:100200002FBF109205209923D1F1EE20C1F120914A
:10021000482030914720232B582F30E070E060E0D9
:1002200040E021C050FF18C012C020FF0FC0461789
:1002300061F4E32FF0E0EE0FFF1FE35FFF4D00835B
:100240001183E52FEE7F31F008C06F5F26952223E2
:1002500061F703C071E001C090FD4F5F90FD3F5F0B
:100260005695969511F05523E9F630930520809523
:10027000E82280E07130D1F4EE20B1F017C0909107
:100280004C2020914B20922B99839091052006C001
:10029000298120FD9F5F2981269529832981222399
:1002A000B9F79093052002C000E010E0F894EE202A
:1002B00009F067CFF501808130DF109206208FB7FB
:1002C0008F298FBF2196ECE00C944D0AFF920F937B
:1002D0001F93CF93DF938C01EB01FF2403C08F2D7D
:1002E00049D1F39480912A20F816C8F31092252062
:1002F000109226200093072010930820CE0106D4E8
:10030000CDB7DEB7E5E00C94540AFC0180E290E042
:10031000808391831282138280E095E084839583A9
:100320000895CF93C0E003C08C2F24D1CF5F80917C
:100330002A20C817C8F3CF91089510922A2084E08C
:1003400080931F2084E18093222095E090932320C6
:100350001092212080932020EFE1F0E281E082934F
:1003600083E08683D8D310920B2010920C2008953E
:100370001F93CF93DF931092092010920A2040918F
:10038000252050912620809325209093262020918F
:10039000272030912820241B350B280F391FC0E05F
:1003A00003C0285C3040CF5F283C3105D0F7209354
:1003B00027203093282080912920882341F08C1712
:1003C00018F41092292003C08C1B80932920B4D3E9
:1003D000E0910B20F0910C20309709F0099510E086
:1003E000D0E005C08D2F6C2FD9D0182BDF5F509136
:1003F0002A20D517B8F3112349F080910920909154
:100400000A2091608093092090930A2010921D2069
:10041000ABE2B0E240E081E090E018C02C9128719E
:1004200099F0E42FE695E695E695F0E0E35FFF4D61
:10043000242F2770BC0102C0660F771F2A95E2F7B0
:100440009B013089322B308B4F5F1696451731F761
:100450008091092090910A20DF91CF911F910895FA
:1004600090912A20A92FB0E0FD01EE0FFF1FEA0FA7
:10047000FB1FEE0FFF1FE55DFF4D43836770858314
:100480002370660F660F660F262B24839F5F909361
:100490002A2008951F93CF93DF93C82FD0E0FE0149
:1004A000EE0FFF1FEC0FFD1FEE0FFF1FE55DFF4D71
:1004B0009581238130E000901E2002C0359527955C
:1004C0000A94E2F7122F243008F414E020912A2035
:1004D000821760F5892F04D3412F50E016951695A9
:1004E000212F30E0241B350B2817390764F4FE0157
:1004F000EE0FFF1FEC0FFD1FEE0FFF1FE55DFF4D21
:1005000024812B7F2483509541955F4F48175907CD
:100510007CF0FE01EE0FFF1FEC0FFD1FEE0FFF1F23
:10052000E55DFF4D24812460248302C080E090E0DB
:10053000DF91CF911F91089590E0FC01EE0FFF1F16
:10054000E80FF91FEE0FFF1FE55DFF4D258182E0EB
:1005500080838091092090910A20826080930920F5
:1005600090930A201282E22FF0E0ED5BFF4D80E8CD
:1005700080830895CF93C82FDFDF8C2F90E0FC019C
:10058000EE0FFF1FE80FF91FEE0FFF1FE55DFF4D98
:1005900081E080838FE08183CF9108952F923F92F5
:1005A0004F925F926F927F928F929F92BF92CF9263
:1005B000DF92EF92FF920F931F93CF93DF930F92EF
:1005C000CDB7DEB7082F162F65DF4C01C02EDD2416
:1005D000B601660F771FFB01EC0DFD1DEE0FFF1F2F
:1005E000E55DFF4D2481438150E0822F837090E0D0
:1005F0000196FA0102C0F595E7958A95E2F7CF01D9
:10060000E23008F482E0DA01A81BB109FB01EC0D2D
:10061000FD1DEE0FFF1FE55DFF4D8081843009F465
:10062000E3C0853030F4813071F0823009F044C28B
:1006300060C0803109F477C1803209F415C2883076
:1006400009F03AC2D8C14091092050910A20CA014C
:1006500092608093092090930A208581618190E0C7
:100660006A3080F0FC01EE0FFF1FEB5EFF4DDC01F6
:10067000AA0FBB1FA35FBF4D8D919C9111978083E3
:1006800091831DC0DC01AA0FBB1FAB5EBF4D2D9136
:100690003C911197FC01EE0FFF1FE35FFF4D80813E
:1006A00091818217930718F42150304005C0281714
:1006B000390758F42F5F3F4F2D933C9311974860B3
:1006C00052604093092050930A206150F601EE0FCA
:1006D000FF1FEC0DFD1DEE0FFF1FE55DFF4D61835C
:1006E000662311F4802F28DF809120208093292019
:1006F000DBC122FF08C0A581B0E0AD5BBF4D1C92FD
:1007000080E28083C8C1C40197FE02C080E090E00F
:100710008417950768F0F601EE0FFF1FEC0DFD1D25
:10072000EE0FFF1FE55DFF4D84E080831282BEC1A6
:10073000112309F4C1C180912920882309F0BCC18B
:10074000F601EE0FFF1FEC0DFD1DEE0FFF1FE55D27
:10075000FF4D258130E0D901AA0FBB1FAB5EBF4D15
:100760008D919C911197F901EE0FFF1FE35FFF4DF3
:1007700040815181F901ED5BFF4D8417950768F4C5
:100780002081210F2083309123203058231708F433
:1007900093C120E82083019610C048175907D0F470
:1007A0002081211B208330E840912220532F541BAD
:1007B000521708F481C1308301978D939C93119750
:1007C0008091092090910A2088608093092090935D
:1007D0000A2072C18081813810F08150808380812D
:1007E00087FD6AC18F5F4CC1C40197FE02C080E0E3
:1007F00090E08417950708F445C1809120208093EC
:100800002920F601EE0FFF1FEC0DFD1DEE0FFF1F5F
:10081000E55DFF4D82818F5F8283848190E08873E4
:100820009070A3E096958795AA95E1F7B82E882356
:10083000D1F54DC01017A9F1812F90E01C01220CB9
:10084000331C280E391E220C331C6BE270E2260E7C
:10085000371EF101848190E08873907053E0969583
:1008600087955A95E1F7B816E1F4812F298312DEB6
:10087000F1013381AC01431B5109F2018081B401C4
:10088000681B710929816417750714F4F30107C007
:10089000F1018081803111F0883019F4F701108264
:1008A00021E01F5F0DC020E010E083E0482E512CB6
:1008B0004E0E5F1E7F0162E070E0E60EF71E37010C
:1008C00080912A20181708F4B5CF222379F480915B
:1008D0001F20882359F08091092090910A20986068
:1008E0008093092090930A2081E001C080E0F60106
:1008F000EE0FFF1FEC0DFD1DEE0FFF1FE55DFF4D21
:10090000228190911F20291708F4D7C02091092037
:1009100030910A2023602093092030930A2090E12F
:1009200090831182CAC04091092050910A2022FF71
:100930000EC0A581B0E0AD5BBF4D80E88C9380E236
:10094000808350614093092050930A204CC0C40119
:1009500097FE02C080E090E09601220F331F8A17B5
:100960009B0778F42C0D3D1D220F331F255D3F4D55
:1009700088E0F90180838091092090910A20946099
:100980002EC0CA0181608093092090930A20F9014A
:10099000EC0DFD1DEE0FFF1FE55DFF4D8281909177
:1009A0001F20891710F48F5F828390912120992353
:1009B000E1F0F601EE0FFF1FEC0DFD1DEE0FFF1F26
:1009C000E55DFF4D8181891718F4810F81830DC08A
:1009D000802FD0DD8091092090910A209260809331
:1009E000092090930A2081E001C080E090912020AE
:1009F0009093292062C080912020809329208281B9
:100A0000882309F43FC0C40197FE02C080E090E053
:100A10002091092030910A20A817B90790F4F60117
:100A2000EE0FFF1FEC0DFD1DEE0FFF1FE55DFF4DEF
:100A300080E1808321602093092030930A2080E0A8
:100A400006C034602093092030930A2081E0F6012B
:100A5000EE0FFF1FEC0DFD1DEE0FFF1FE55DFF4DBF
:100A600092819150928329C0A581B0E0AD5BBF4DCA
:100A70008C918F5F8C9322FD08C087FF03C080E1BB
:100A800080831AC0802F58DD17C0909124208917C9
:100A900068F0802F6FDD8091092090910A2090618D
:100AA0008093092090930A2081E007C0809109205B
:100AB00090910A209460F4CF80E00F90DF91CF9165
:100AC0001F910F91FF90EF90DF90CF90BF909F907C
:100AD0008F907F906F905F904F903F902F900895F0
:100AE00090E0FC0134962DE030E2EE0FFF1FE20FA4
:100AF000F31FDC01AA0FBB1FA20FB31F80819181DE
:100B00002D913C911197821B930B0895009711F042
:100B1000FC010995089510924B2010924C201092E0
:100B200047201092482010924D2010924E20109293
:100B3000492010924A20089580914D2090914B2099
:100B4000892B41F0E0910720F0910820309711F0B7
:100B500080E0099580914E2090914C20892B41F0A6
:100B6000E0910720F0910820309711F081E009957D
:100B7000089585E080930106E0E6F6E08AE181834E
:100B800084E08283E0E4F6E0108A81E0818B83E0F8
:100B9000838B8BE081830895E0E5F0E080818260C3
:100BA0008083E1E5F0E0808181FFFDCF88ED84BFA7
:100BB000E0E4F0E081E0808383830895E0ECF9E0F5
:100BC000128288E1838380EC8483158281E08093A4
:100BD000C6091782E0ECF8E083E18683178212826F
:100BE00082EC8483158288E083830895E0E0F1E05D
:100BF00094E0908B83E0818B81E3828B2CE6248BC5
:100C000090A311A290E392A39DE694A382AB86E108
:100C100084AB85E080AB82E181AB1092410181E041
:100C2000809342011092430180EC98E080934C0144
:100C300090934D018DE48093440181E88083089571
:100C4000E0E6F4E081E1848383E085838EE98683B6
:100C500086E186878DE0848784E4808380E58183D4
:100C600080E4828380EA83830895E0E4F8E01082E0
:100C700081E0809346088DE790E086A397A30895CE
:100C80008091022090910320E0E0F4E08287938736
:100C900081E0808382830895E0E8F1E080EC818345
:100CA00083E68083108681E6868316860895E0E0D9
:100CB000F3E082E2818388E0828381E0838389E0BC
:100CC00080830895CF92DF92EF92FF92CF93DF93CC
:100CD00000D000D0CDB7DEB731E030934F20109276
:100CE000502030E13093660633E039836C01EE2406
:100CF000FF24CA82C72ED82EE92EFF24CB826C8314
:100D0000E0E0F1E064E070E0668B778B408F518F1C
:100D100080898068808B66A377A3CE01019680A727
:100D200091A781E382A380A1806980A380914F2055
:100D30008111FCCF81E080934F208093502030E0E0
:100D4000E0E0F1E0268B378B408F518F80898068FF
:100D5000808B26A337A381E090E280A791A780E350
:100D600082A380A1806980A32496CDBFDEBFDF91DE
:100D7000CF91FF90EF90DF90CF90089580E691E2C1
:100D800080934801909349018091F4209091F5203F
:100D90009C01220F331F820F931F80934601909373
:100DA000470184E880934001089522E04BE550E23A
:100DB00060E070E0CB0186DF80914F208111FCCF95
:100DC0000895880F991F880F991F880F991FBC01DC
:100DD0006E5F7F4F80E090E028E040E650E272DFF7
:100DE00080914F208111FCCF089560916020709117
:100DF0006120809162209091632029E048E650E2D2
:100E000061DF80914F208111FCCFE0E6F0E280812C
:100E10009181A281B3810996A11DB11D8083918327
:100E2000A283B38380916D2090916E20A0916F205A
:100E3000B0917020880F991FAA1FBB1F8093532069
:100E400090935420A0935520B0935620089560911C
:100E5000642070916520809166209091672024E045
:100E600042EF50E22FDF80914F208111FCCFE0E66E
:100E7000F0E284819581A681B7810496A11DB11D00
:100E800084839583A683B7830895CF93C091F4207C
:100E90008C2F880FC80FCE5F1092592010925A20C5
:100EA00010924008609164207091652080916620C6
:100EB000909167202C2F4EE551E204DF80914F2066
:100EC0008111FCCFE0E6F0E284819581A681B781B3
:100ED0008C0F911DA11DB11D84839583A683B783BB
:100EE000E2EFF0E28081918101978083918386E037
:100EF0008093400843DFCF910895E8E6F0E2A481B3
:100F00002081318142815381B0E09ED29B01AC01AE
:100F100060E078E488EE91E075D220935120309320
:100F2000522008950F931F93CF93DF93E0915C219C
:100F3000F0915D2180E88083E0915C21F0915D215A
:100F4000409153205091542060915520709156202B
:100F5000808190E0A0E0B0E0481759076A077B075E
:100F600018F480916D208083E0915C21F0915D21E7
:100F7000808190E0A0E0B0E0409153205091542057
:100F80006091552070915620481759076A077B07D2
:100F900048F4109253201092542010925520109231
:100FA000562016C0409153205091542060915520F6
:100FB000709156208A019B01081B190B2A0B3B0BD1
:100FC00000935320109354202093552030935620A3
:100FD000AF014F5F5F4FC0E6D0E2688179818A81BF
:100FE0009B8120816FDEE0915C21F0915D21208169
:100FF00088819981AA81BB81820F911DA11DB11D9C
:1010000088839983AA83BB83DF91CF911F910F912E
:10101000089580915C2190915D218C55924269F4F4
:1010200081E790E280935C2190935D218CE592E2D0
:101030008093F6209093F72008958CE592E28093B8
:101040005C2190935D2181E790E28093F62090935C
:10105000F7200895DEDF66DFA091F620B091F7203B
:101060008D9190E0E0E0F1E086AB97ABA0AFB1AF3F
:1010700080A9806980AB809151209091522080930B
:1010800026089093270808959C0190914F20911174
:10109000FCCF109226081092270810924008C90130
:1010A00090DEA3DE2ADF8091642090916520A091DC
:1010B0006620B0916720892B8A2B8B2B09F0C7DE25
:1010C0008CE592E280935C2190935D212BDF8091EF
:1010D0004F208111FCCF8091642090916520A091D8
:1010E0006620B0916720892B8A2B8B2B09F0CDDEEF
:1010F000B1CF089584E590E08093F4209093F5209B
:10110000E0E6F1E28CE592E21192E817F907E1F7E7
:1011100035CE0895EEE1F0E284E0818384E18483BA
:1011200095E095831382828381E0808383E08683C8
:10113000089523E04AE060E080E092D923E04AE0AD
:1011400060E081E08DD923E04AE060E082E088C978
:101150000895EBE4F0E281E580831182128213822C
:10116000E7E4F0E282EA808311821282138201DDD9
:1011700087E08093A200F8940FDD20DD37DD8CDD61
:10118000C0E0D8E081E088837BDD91DD6EDD58DD55
:10119000D0DF60E070E082E990E098D8BBDF78941F
:1011A000C0931803D0931903C0E6D6E080E18D8385
:1011B000FCDD81EC89830DE010E280915F208823C3
:1011C000E1F310925F2080915D2090915E20D0D855
:1011D000EC0181FF4AC0F8018089813031F48091AF
:1011E00057209091582050DF40C08230F1F4809118
:1011F0005720909158200196809357209093582023
:10120000209157203091582080915B2090915C2054
:101210002817390721F410925720109258208091F6
:1012200057209091582030DF20C08430F1F4809115
:10123000572090915820892B51F080915720909100
:1012400058200197809357209093582009C080918F
:101250005B2090915C2001978093572090935820B9
:1012600080915720909158200FDFD0FDACCFA5CFB3
:101270001F920F920FB60F9211242F933F934F930B
:101280005F936F937F938F939F93AF93BF93EF93EE
:10129000FF93E0E0F1E081A984FFFDCF809153202E
:1012A00090915420A0915520B0915620892B8A2BE3
:1012B0008B2B29F1E0E0F1E081A98F7181AB809166
:1012C000642090916520A0916620B0916720892BC1
:1012D0008A2B8B2B91F08091592090915A2020914C
:1012E0005E2130915F212817390738F48091F22070
:1012F0009091F320892B09F0C8DDACDE0CC0E0E052
:10130000F1E081A9806181AB109226081092270834
:1013100010924008EFDEFF91EF91BF91AF919F9146
:101320008F917F916F915F914F913F912F910F908E
:101330000FBE0F901F9018951F920F920FB60F922D
:1013400011248F93EF93FF93E0E0F1E0818984FD16
:1013500003C081A184FFFACFE0E0F1E081898F71C1
:10136000818B81A18F7181A380915020882319F0F6
:1013700080E18093650610924F20FF91EF918F914D
:101380000F900FBE0F901F9018951F920F920FB6DF
:101390000F9211248F939F9381E080934C0880914A
:1013A000592090915A2001968093592090935A2069
:1013B0009F918F910F900FBE0F901F9018951F92C5
:1013C0000F920FB60F9211242F933F938F939F93F9
:1013D00081E080935F2020915D2030915E2080919C
:1013E000022090910320820F931F80935D209093A1
:1013F0005E209F918F913F912F910F900FBE0F9084
:101400001F901895A1E21A2EAA1BBB1BFD010DC04F
:10141000AA1FBB1FEE1FFF1FA217B307E407F507A4
:1014200020F0A21BB30BE40BF50B661F771F881F80
:10143000991F1A9469F760957095809590959B0116
:10144000AC01BD01CF0108953AD0A59F900DB49F86
:10145000900DA49F800D911D112408952F923F920D
:101460004F925F926F927F928F929F92AF92BF92B4
:10147000CF92DF92EF92FF920F931F93CF93DF9360
:10148000CDB7DEB7CA1BDB0BCDBFDEBF09942A8800
:10149000398848885F846E847D848C849B84AA8488
:1014A000B984C884DF80EE80FD800C811B81AA8115
:1014B000B981CE0FD11DCDBFDEBFED010895A29F32
:1014C000B001B39FC001A39F700D811D1124911D18
:1014D000B29F700D811D1124911D0895F894FFCFC6
:0414E0000155190099
:00000001FF
